{
  "contractName": "Marketplace",
  "abi": [
    {
      "inputs": [
        {
          "internalType": "uint256",
          "name": "_feePercent",
          "type": "uint256"
        }
      ],
      "stateMutability": "nonpayable",
      "type": "constructor"
    },
    {
      "anonymous": false,
      "inputs": [
        {
          "indexed": false,
          "internalType": "uint256",
          "name": "itemId",
          "type": "uint256"
        },
        {
          "indexed": true,
          "internalType": "address",
          "name": "nft",
          "type": "address"
        },
        {
          "indexed": false,
          "internalType": "uint256",
          "name": "tokenId",
          "type": "uint256"
        },
        {
          "indexed": false,
          "internalType": "uint256",
          "name": "price",
          "type": "uint256"
        },
        {
          "indexed": true,
          "internalType": "address",
          "name": "seller",
          "type": "address"
        },
        {
          "indexed": true,
          "internalType": "address",
          "name": "buyer",
          "type": "address"
        }
      ],
      "name": "Bought",
      "type": "event"
    },
    {
      "anonymous": false,
      "inputs": [
        {
          "indexed": false,
          "internalType": "uint256",
          "name": "itemId",
          "type": "uint256"
        },
        {
          "indexed": true,
          "internalType": "address",
          "name": "nft",
          "type": "address"
        },
        {
          "indexed": false,
          "internalType": "uint256",
          "name": "tokenId",
          "type": "uint256"
        },
        {
          "indexed": false,
          "internalType": "uint256",
          "name": "price",
          "type": "uint256"
        },
        {
          "indexed": true,
          "internalType": "address",
          "name": "seller",
          "type": "address"
        }
      ],
      "name": "Offered",
      "type": "event"
    },
    {
      "inputs": [],
      "name": "feeAccount",
      "outputs": [
        {
          "internalType": "address payable",
          "name": "",
          "type": "address"
        }
      ],
      "stateMutability": "view",
      "type": "function",
      "constant": true
    },
    {
      "inputs": [],
      "name": "feePercent",
      "outputs": [
        {
          "internalType": "uint256",
          "name": "",
          "type": "uint256"
        }
      ],
      "stateMutability": "view",
      "type": "function",
      "constant": true
    },
    {
      "inputs": [],
      "name": "itemCount",
      "outputs": [
        {
          "internalType": "uint256",
          "name": "",
          "type": "uint256"
        }
      ],
      "stateMutability": "view",
      "type": "function",
      "constant": true
    },
    {
      "inputs": [
        {
          "internalType": "uint256",
          "name": "",
          "type": "uint256"
        }
      ],
      "name": "items",
      "outputs": [
        {
          "internalType": "uint256",
          "name": "itemId",
          "type": "uint256"
        },
        {
          "internalType": "contract IERC721",
          "name": "nft",
          "type": "address"
        },
        {
          "internalType": "uint256",
          "name": "tokenId",
          "type": "uint256"
        },
        {
          "internalType": "uint256",
          "name": "price",
          "type": "uint256"
        },
        {
          "internalType": "address payable",
          "name": "seller",
          "type": "address"
        },
        {
          "internalType": "bool",
          "name": "sold",
          "type": "bool"
        }
      ],
      "stateMutability": "view",
      "type": "function",
      "constant": true
    },
    {
      "inputs": [
        {
          "internalType": "contract IERC721",
          "name": "_nft",
          "type": "address"
        },
        {
          "internalType": "uint256",
          "name": "_tokenId",
          "type": "uint256"
        },
        {
          "internalType": "uint256",
          "name": "_price",
          "type": "uint256"
        }
      ],
      "name": "makeItem",
      "outputs": [],
      "stateMutability": "nonpayable",
      "type": "function"
    },
    {
      "inputs": [
        {
          "internalType": "uint256",
          "name": "_itemId",
          "type": "uint256"
        }
      ],
      "name": "purchaseItem",
      "outputs": [],
      "stateMutability": "payable",
      "type": "function",
      "payable": true
    },
    {
      "inputs": [
        {
          "internalType": "uint256",
          "name": "_itemId",
          "type": "uint256"
        }
      ],
      "name": "getTotalPrice",
      "outputs": [
        {
          "internalType": "uint256",
          "name": "",
          "type": "uint256"
        }
      ],
      "stateMutability": "view",
      "type": "function",
      "constant": true
    }
  ],
  "bytecode": "0x60c060405234801561001057600080fd5b5060405161119d38038061119d83398181016040528101906100329190610094565b60016000819055503373ffffffffffffffffffffffffffffffffffffffff1660808173ffffffffffffffffffffffffffffffffffffffff1660601b815250508060a08181525050506100de565b60008151905061008e816100c7565b92915050565b6000602082840312156100a657600080fd5b60006100b48482850161007f565b91505092915050565b6000819050919050565b6100d0816100bd565b81146100db57600080fd5b50565b60805160601c60a051611089610114600039600081816101e601526102970152600081816101bc01526104bd01526110896000f3fe6080604052600436106100705760003560e01c8063bfb231d21161004e578063bfb231d2146100f6578063ca7dd37514610138578063d38ea5bf14610175578063fa00afc71461019157610070565b806365e17c9d146100755780636bfb0d01146100a05780637fd6f15c146100cb575b600080fd5b34801561008157600080fd5b5061008a6101ba565b6040516100979190610b30565b60405180910390f35b3480156100ac57600080fd5b506100b56101de565b6040516100c29190610c22565b60405180910390f35b3480156100d757600080fd5b506100e06101e4565b6040516100ed9190610c22565b60405180910390f35b34801561010257600080fd5b5061011d60048036038101906101189190610a0d565b610208565b60405161012f96959493929190610c3d565b60405180910390f35b34801561014457600080fd5b5061015f600480360381019061015a9190610a0d565b610291565b60405161016c9190610c22565b60405180910390f35b61018f600480360381019061018a9190610a0d565b6102f4565b005b34801561019d57600080fd5b506101b860048036038101906101b391906109be565b6106c2565b005b7f000000000000000000000000000000000000000000000000000000000000000081565b60015481565b7f000000000000000000000000000000000000000000000000000000000000000081565b60026020528060005260406000206000915090508060000154908060010160009054906101000a900473ffffffffffffffffffffffffffffffffffffffff16908060020154908060030154908060040160009054906101000a900473ffffffffffffffffffffffffffffffffffffffff16908060040160149054906101000a900460ff16905086565b600060647f000000000000000000000000000000000000000000000000000000000000000060646102c29190610ce6565b60026000858152602001908152602001600020600301546102e39190610d6d565b6102ed9190610d3c565b9050919050565b6002600054141561033a576040517f08c379a000000000000000000000000000000000000000000000000000000000815260040161033190610c02565b60405180910390fd5b6002600081905550600061034d82610291565b9050600060026000848152602001908152602001600020905060008311801561037857506001548311155b6103b7576040517f08c379a00000000000000000000000000000000000000000000000000000000081526004016103ae90610be2565b60405180910390fd5b813410156103fa576040517f08c379a00000000000000000000000000000000000000000000000000000000081526004016103f190610bc2565b60405180910390fd5b8060040160149054906101000a900460ff161561044c576040517f08c379a000000000000000000000000000000000000000000000000000000000815260040161044390610b82565b60405180910390fd5b8060040160009054906101000a900473ffffffffffffffffffffffffffffffffffffffff1673ffffffffffffffffffffffffffffffffffffffff166108fc82600301549081150290604051600060405180830381858888f193505050501580156104ba573d6000803e3d6000fd5b507f000000000000000000000000000000000000000000000000000000000000000073ffffffffffffffffffffffffffffffffffffffff166108fc8260030154846105059190610dc7565b9081150290604051600060405180830381858888f19350505050158015610530573d6000803e3d6000fd5b5060018160040160146101000a81548160ff0219169083151502179055508060010160009054906101000a900473ffffffffffffffffffffffffffffffffffffffff1673ffffffffffffffffffffffffffffffffffffffff166323b872dd303384600201546040518463ffffffff1660e01b81526004016105b393929190610b4b565b600060405180830381600087803b1580156105cd57600080fd5b505af11580156105e1573d6000803e3d6000fd5b505050503373ffffffffffffffffffffffffffffffffffffffff168160040160009054906101000a900473ffffffffffffffffffffffffffffffffffffffff1673ffffffffffffffffffffffffffffffffffffffff168260010160009054906101000a900473ffffffffffffffffffffffffffffffffffffffff1673ffffffffffffffffffffffffffffffffffffffff167f8b4c9c8a607d67b321582dd8461041b1dc2ceeca70c8b7f37f8e02095cf2e76d86856002015486600301546040516106ad93929190610c9e565b60405180910390a45050600160008190555050565b60026000541415610708576040517f08c379a00000000000000000000000000000000000000000000000000000000081526004016106ff90610c02565b60405180910390fd5b600260008190555060008111610753576040517f08c379a000000000000000000000000000000000000000000000000000000000815260040161074a90610ba2565b60405180910390fd5b6001600081548092919061076690610e8b565b91905055508273ffffffffffffffffffffffffffffffffffffffff166323b872dd3330856040518463ffffffff1660e01b81526004016107a893929190610b4b565b600060405180830381600087803b1580156107c257600080fd5b505af11580156107d6573d6000803e3d6000fd5b505050506040518060c0016040528060015481526020018473ffffffffffffffffffffffffffffffffffffffff1681526020018381526020018281526020013373ffffffffffffffffffffffffffffffffffffffff168152602001600015158152506002600060015481526020019081526020016000206000820151816000015560208201518160010160006101000a81548173ffffffffffffffffffffffffffffffffffffffff021916908373ffffffffffffffffffffffffffffffffffffffff160217905550604082015181600201556060820151816003015560808201518160040160006101000a81548173ffffffffffffffffffffffffffffffffffffffff021916908373ffffffffffffffffffffffffffffffffffffffff16021790555060a08201518160040160146101000a81548160ff0219169083151502179055509050503373ffffffffffffffffffffffffffffffffffffffff168373ffffffffffffffffffffffffffffffffffffffff167f655a0cf9c8db81512be9a76dc1c5ae5380b8816ce6ad659cd61b715e2999d59a600154858560405161097f93929190610c9e565b60405180910390a36001600081905550505050565b6000813590506109a381611025565b92915050565b6000813590506109b88161103c565b92915050565b6000806000606084860312156109d357600080fd5b60006109e186828701610994565b93505060206109f2868287016109a9565b9250506040610a03868287016109a9565b9150509250925092565b600060208284031215610a1f57600080fd5b6000610a2d848285016109a9565b91505092915050565b610a3f81610e0d565b82525050565b610a4e81610dfb565b82525050565b610a5d81610e1f565b82525050565b610a6c81610e67565b82525050565b6000610a7f601183610cd5565b9150610a8a82610f32565b602082019050919050565b6000610aa2601f83610cd5565b9150610aad82610f5b565b602082019050919050565b6000610ac5603383610cd5565b9150610ad082610f84565b604082019050919050565b6000610ae8601283610cd5565b9150610af382610fd3565b602082019050919050565b6000610b0b601f83610cd5565b9150610b1682610ffc565b602082019050919050565b610b2a81610e5d565b82525050565b6000602082019050610b456000830184610a36565b92915050565b6000606082019050610b606000830186610a45565b610b6d6020830185610a45565b610b7a6040830184610b21565b949350505050565b60006020820190508181036000830152610b9b81610a72565b9050919050565b60006020820190508181036000830152610bbb81610a95565b9050919050565b60006020820190508181036000830152610bdb81610ab8565b9050919050565b60006020820190508181036000830152610bfb81610adb565b9050919050565b60006020820190508181036000830152610c1b81610afe565b9050919050565b6000602082019050610c376000830184610b21565b92915050565b600060c082019050610c526000830189610b21565b610c5f6020830188610a63565b610c6c6040830187610b21565b610c796060830186610b21565b610c866080830185610a36565b610c9360a0830184610a54565b979650505050505050565b6000606082019050610cb36000830186610b21565b610cc06020830185610b21565b610ccd6040830184610b21565b949350505050565b600082825260208201905092915050565b6000610cf182610e5d565b9150610cfc83610e5d565b9250827fffffffffffffffffffffffffffffffffffffffffffffffffffffffffffffffff03821115610d3157610d30610ed4565b5b828201905092915050565b6000610d4782610e5d565b9150610d5283610e5d565b925082610d6257610d61610f03565b5b828204905092915050565b6000610d7882610e5d565b9150610d8383610e5d565b9250817fffffffffffffffffffffffffffffffffffffffffffffffffffffffffffffffff0483118215151615610dbc57610dbb610ed4565b5b828202905092915050565b6000610dd282610e5d565b9150610ddd83610e5d565b925082821015610df057610def610ed4565b5b828203905092915050565b6000610e0682610e3d565b9050919050565b6000610e1882610e3d565b9050919050565b60008115159050919050565b6000610e3682610dfb565b9050919050565b600073ffffffffffffffffffffffffffffffffffffffff82169050919050565b6000819050919050565b6000610e7282610e79565b9050919050565b6000610e8482610e3d565b9050919050565b6000610e9682610e5d565b91507fffffffffffffffffffffffffffffffffffffffffffffffffffffffffffffffff821415610ec957610ec8610ed4565b5b600182019050919050565b7f4e487b7100000000000000000000000000000000000000000000000000000000600052601160045260246000fd5b7f4e487b7100000000000000000000000000000000000000000000000000000000600052601260045260246000fd5b7f6974656d20616c726561647920736f6c64000000000000000000000000000000600082015250565b7f5072696365206d7573742062652067726561746572207468616e207a65726f00600082015250565b7f6e6f7420656e6f75676820657468657220746f20636f766572206974656d207060008201527f7269636520616e64206d61726b65742066656500000000000000000000000000602082015250565b7f6974656d20646f65736e27742065786973740000000000000000000000000000600082015250565b7f5265656e7472616e637947756172643a207265656e7472616e742063616c6c00600082015250565b61102e81610e2b565b811461103957600080fd5b50565b61104581610e5d565b811461105057600080fd5b5056fea264697066735822122072198f13eb6ae00dcb96c1748438b66cf20e0b46ae6ae8025b7d944905bb12d764736f6c63430008040033",
  "immutableReferences": {
    "1758": [
      {
        "length": 32,
        "start": 444
      },
      {
        "length": 32,
        "start": 1213
      }
    ],
    "1760": [
      {
        "length": 32,
        "start": 486
      },
      {
        "length": 32,
        "start": 663
      }
    ]
  },
  "source": "// SPDX-License-Identifier: MIT\r\npragma solidity ^0.8.4;\r\n\r\nimport \"@openzeppelin/contracts/token/ERC721/IERC721.sol\";\r\n\r\nimport \"@openzeppelin/contracts/security/ReentrancyGuard.sol\";\r\n\r\ncontract Marketplace is ReentrancyGuard {\r\n\r\n    // Variables\r\n    address payable public immutable feeAccount; // the account that receives fees\r\n    uint public immutable feePercent; // the fee percentage on sales \r\n    uint public itemCount; \r\n\r\n    struct Item {\r\n        uint itemId;\r\n        IERC721 nft;\r\n        uint tokenId;\r\n        uint price;\r\n        address payable seller;\r\n        bool sold;\r\n    }\r\n\r\n    // itemId -> Item\r\n    mapping(uint => Item) public items;\r\n\r\n    event Offered(\r\n        uint itemId,\r\n        address indexed nft,\r\n        uint tokenId,\r\n        uint price,\r\n        address indexed seller\r\n    );\r\n    event Bought(\r\n        uint itemId,\r\n        address indexed nft,\r\n        uint tokenId,\r\n        uint price,\r\n        address indexed seller,\r\n        address indexed buyer\r\n    );\r\n\r\n    constructor(uint _feePercent) {\r\n        feeAccount = payable(msg.sender);\r\n        feePercent = _feePercent;\r\n    }\r\n\r\n    // Make item to offer on the marketplace\r\n    function makeItem(IERC721 _nft, uint _tokenId, uint _price) external nonReentrant {\r\n        require(_price > 0, \"Price must be greater than zero\");\r\n        // increment itemCount\r\n        itemCount ++;\r\n        // transfer nft\r\n        _nft.transferFrom(msg.sender, address(this), _tokenId);\r\n        // add new item to items mapping\r\n        items[itemCount] = Item (\r\n            itemCount,\r\n            _nft,\r\n            _tokenId,\r\n            _price,\r\n            payable(msg.sender),\r\n            false\r\n        );\r\n        // emit Offered event\r\n        emit Offered(\r\n            itemCount,\r\n            address(_nft),\r\n            _tokenId,\r\n            _price,\r\n            msg.sender\r\n        );\r\n    }\r\n\r\n    function purchaseItem(uint _itemId) external payable nonReentrant {\r\n        uint _totalPrice = getTotalPrice(_itemId);\r\n        Item storage item = items[_itemId];\r\n        require(_itemId > 0 && _itemId <= itemCount, \"item doesn't exist\");\r\n        require(msg.value >= _totalPrice, \"not enough ether to cover item price and market fee\");\r\n        require(!item.sold, \"item already sold\");\r\n        // pay seller and feeAccount\r\n        item.seller.transfer(item.price);\r\n        feeAccount.transfer(_totalPrice - item.price);\r\n        // update item to sold\r\n        item.sold = true;\r\n        // transfer nft to buyer\r\n        item.nft.transferFrom(address(this), msg.sender, item.tokenId);\r\n        // emit Bought event\r\n        emit Bought(\r\n            _itemId,\r\n            address(item.nft),\r\n            item.tokenId,\r\n            item.price,\r\n            item.seller,\r\n            msg.sender\r\n        );\r\n    }\r\n    function getTotalPrice(uint _itemId) view public returns(uint){\r\n        return((items[_itemId].price*(100 + feePercent))/100);\r\n    }\r\n}",
  "sourcePath": "D:\\bairui\\nodejs\\truffle\\nft_marketplace\\contracts\\Marketplace.sol",
  "compiler": {
    "name": "solc",
    "version": "0.8.4+commit.c7e474f2.Emscripten.clang"
  },
  "schemaVersion": "3.4.3",
  "updatedAt": "2022-06-08T09:56:16.867Z",
  "networkType": "ethereum",
  "devdoc": {
    "kind": "dev",
    "methods": {},
    "version": 1
  },
  "userdoc": {
    "kind": "user",
    "methods": {},
    "version": 1
  }
}