{
  "contractName": "NFT",
  "abi": [
    {
      "inputs": [],
      "stateMutability": "nonpayable",
      "type": "constructor"
    },
    {
      "anonymous": false,
      "inputs": [
        {
          "indexed": true,
          "internalType": "address",
          "name": "owner",
          "type": "address"
        },
        {
          "indexed": true,
          "internalType": "address",
          "name": "approved",
          "type": "address"
        },
        {
          "indexed": true,
          "internalType": "uint256",
          "name": "tokenId",
          "type": "uint256"
        }
      ],
      "name": "Approval",
      "type": "event"
    },
    {
      "anonymous": false,
      "inputs": [
        {
          "indexed": true,
          "internalType": "address",
          "name": "owner",
          "type": "address"
        },
        {
          "indexed": true,
          "internalType": "address",
          "name": "operator",
          "type": "address"
        },
        {
          "indexed": false,
          "internalType": "bool",
          "name": "approved",
          "type": "bool"
        }
      ],
      "name": "ApprovalForAll",
      "type": "event"
    },
    {
      "anonymous": false,
      "inputs": [
        {
          "indexed": true,
          "internalType": "address",
          "name": "from",
          "type": "address"
        },
        {
          "indexed": true,
          "internalType": "address",
          "name": "to",
          "type": "address"
        },
        {
          "indexed": true,
          "internalType": "uint256",
          "name": "tokenId",
          "type": "uint256"
        }
      ],
      "name": "Transfer",
      "type": "event"
    },
    {
      "inputs": [
        {
          "internalType": "address",
          "name": "to",
          "type": "address"
        },
        {
          "internalType": "uint256",
          "name": "tokenId",
          "type": "uint256"
        }
      ],
      "name": "approve",
      "outputs": [],
      "stateMutability": "nonpayable",
      "type": "function"
    },
    {
      "inputs": [
        {
          "internalType": "address",
          "name": "owner",
          "type": "address"
        }
      ],
      "name": "balanceOf",
      "outputs": [
        {
          "internalType": "uint256",
          "name": "",
          "type": "uint256"
        }
      ],
      "stateMutability": "view",
      "type": "function",
      "constant": true
    },
    {
      "inputs": [
        {
          "internalType": "uint256",
          "name": "tokenId",
          "type": "uint256"
        }
      ],
      "name": "getApproved",
      "outputs": [
        {
          "internalType": "address",
          "name": "",
          "type": "address"
        }
      ],
      "stateMutability": "view",
      "type": "function",
      "constant": true
    },
    {
      "inputs": [
        {
          "internalType": "address",
          "name": "owner",
          "type": "address"
        },
        {
          "internalType": "address",
          "name": "operator",
          "type": "address"
        }
      ],
      "name": "isApprovedForAll",
      "outputs": [
        {
          "internalType": "bool",
          "name": "",
          "type": "bool"
        }
      ],
      "stateMutability": "view",
      "type": "function",
      "constant": true
    },
    {
      "inputs": [],
      "name": "name",
      "outputs": [
        {
          "internalType": "string",
          "name": "",
          "type": "string"
        }
      ],
      "stateMutability": "view",
      "type": "function",
      "constant": true
    },
    {
      "inputs": [
        {
          "internalType": "uint256",
          "name": "tokenId",
          "type": "uint256"
        }
      ],
      "name": "ownerOf",
      "outputs": [
        {
          "internalType": "address",
          "name": "",
          "type": "address"
        }
      ],
      "stateMutability": "view",
      "type": "function",
      "constant": true
    },
    {
      "inputs": [
        {
          "internalType": "address",
          "name": "from",
          "type": "address"
        },
        {
          "internalType": "address",
          "name": "to",
          "type": "address"
        },
        {
          "internalType": "uint256",
          "name": "tokenId",
          "type": "uint256"
        }
      ],
      "name": "safeTransferFrom",
      "outputs": [],
      "stateMutability": "nonpayable",
      "type": "function"
    },
    {
      "inputs": [
        {
          "internalType": "address",
          "name": "from",
          "type": "address"
        },
        {
          "internalType": "address",
          "name": "to",
          "type": "address"
        },
        {
          "internalType": "uint256",
          "name": "tokenId",
          "type": "uint256"
        },
        {
          "internalType": "bytes",
          "name": "_data",
          "type": "bytes"
        }
      ],
      "name": "safeTransferFrom",
      "outputs": [],
      "stateMutability": "nonpayable",
      "type": "function"
    },
    {
      "inputs": [
        {
          "internalType": "address",
          "name": "operator",
          "type": "address"
        },
        {
          "internalType": "bool",
          "name": "approved",
          "type": "bool"
        }
      ],
      "name": "setApprovalForAll",
      "outputs": [],
      "stateMutability": "nonpayable",
      "type": "function"
    },
    {
      "inputs": [
        {
          "internalType": "bytes4",
          "name": "interfaceId",
          "type": "bytes4"
        }
      ],
      "name": "supportsInterface",
      "outputs": [
        {
          "internalType": "bool",
          "name": "",
          "type": "bool"
        }
      ],
      "stateMutability": "view",
      "type": "function",
      "constant": true
    },
    {
      "inputs": [],
      "name": "symbol",
      "outputs": [
        {
          "internalType": "string",
          "name": "",
          "type": "string"
        }
      ],
      "stateMutability": "view",
      "type": "function",
      "constant": true
    },
    {
      "inputs": [],
      "name": "tokenCount",
      "outputs": [
        {
          "internalType": "uint256",
          "name": "",
          "type": "uint256"
        }
      ],
      "stateMutability": "view",
      "type": "function",
      "constant": true
    },
    {
      "inputs": [
        {
          "internalType": "uint256",
          "name": "tokenId",
          "type": "uint256"
        }
      ],
      "name": "tokenURI",
      "outputs": [
        {
          "internalType": "string",
          "name": "",
          "type": "string"
        }
      ],
      "stateMutability": "view",
      "type": "function",
      "constant": true
    },
    {
      "inputs": [
        {
          "internalType": "address",
          "name": "from",
          "type": "address"
        },
        {
          "internalType": "address",
          "name": "to",
          "type": "address"
        },
        {
          "internalType": "uint256",
          "name": "tokenId",
          "type": "uint256"
        }
      ],
      "name": "transferFrom",
      "outputs": [],
      "stateMutability": "nonpayable",
      "type": "function"
    },
    {
      "inputs": [
        {
          "internalType": "string",
          "name": "_tokenURI",
          "type": "string"
        }
      ],
      "name": "mint",
      "outputs": [
        {
          "internalType": "uint256",
          "name": "",
          "type": "uint256"
        }
      ],
      "stateMutability": "nonpayable",
      "type": "function"
    }
  ],
  "bytecode": "0x60806040523480156200001157600080fd5b506040518060400160405280600881526020017f44417070204e46540000000000000000000000000000000000000000000000008152506040518060400160405280600481526020017f4441505000000000000000000000000000000000000000000000000000000000815250816000908051906020019062000096929190620000b8565b508060019080519060200190620000af929190620000b8565b505050620001cd565b828054620000c69062000168565b90600052602060002090601f016020900481019282620000ea576000855562000136565b82601f106200010557805160ff191683800117855562000136565b8280016001018555821562000136579182015b828111156200013557825182559160200191906001019062000118565b5b50905062000145919062000149565b5090565b5b80821115620001645760008160009055506001016200014a565b5090565b600060028204905060018216806200018157607f821691505b602082108114156200019857620001976200019e565b5b50919050565b7f4e487b7100000000000000000000000000000000000000000000000000000000600052602260045260246000fd5b612c0f80620001dd6000396000f3fe608060405234801561001057600080fd5b50600436106100f55760003560e01c806370a0823111610097578063b88d4fde11610066578063b88d4fde14610284578063c87b56dd146102a0578063d85d3d27146102d0578063e985e9c514610300576100f5565b806370a08231146101fc57806395d89b411461022c5780639f181b5e1461024a578063a22cb46514610268576100f5565b8063095ea7b3116100d3578063095ea7b31461017857806323b872dd1461019457806342842e0e146101b05780636352211e146101cc576100f5565b806301ffc9a7146100fa57806306fdde031461012a578063081812fc14610148575b600080fd5b610114600480360381019061010f9190611c7b565b610330565b60405161012191906120c2565b60405180910390f35b610132610412565b60405161013f91906120dd565b60405180910390f35b610162600480360381019061015d9190611d0e565b6104a4565b60405161016f919061205b565b60405180910390f35b610192600480360381019061018d9190611c3f565b610529565b005b6101ae60048036038101906101a99190611b39565b610641565b005b6101ca60048036038101906101c59190611b39565b6106a1565b005b6101e660048036038101906101e19190611d0e565b6106c1565b6040516101f3919061205b565b60405180910390f35b61021660048036038101906102119190611ad4565b610773565b60405161022391906122ff565b60405180910390f35b61023461082b565b60405161024191906120dd565b60405180910390f35b6102526108bd565b60405161025f91906122ff565b60405180910390f35b610282600480360381019061027d9190611c03565b6108c3565b005b61029e60048036038101906102999190611b88565b6108d9565b005b6102ba60048036038101906102b59190611d0e565b61093b565b6040516102c791906120dd565b60405180910390f35b6102ea60048036038101906102e59190611ccd565b610a8d565b6040516102f791906122ff565b60405180910390f35b61031a60048036038101906103159190611afd565b610ac9565b60405161032791906120c2565b60405180910390f35b60007f80ac58cd000000000000000000000000000000000000000000000000000000007bffffffffffffffffffffffffffffffffffffffffffffffffffffffff1916827bffffffffffffffffffffffffffffffffffffffffffffffffffffffff191614806103fb57507f5b5e139f000000000000000000000000000000000000000000000000000000007bffffffffffffffffffffffffffffffffffffffffffffffffffffffff1916827bffffffffffffffffffffffffffffffffffffffffffffffffffffffff1916145b8061040b575061040a82610b5d565b5b9050919050565b60606000805461042190612555565b80601f016020809104026020016040519081016040528092919081815260200182805461044d90612555565b801561049a5780601f1061046f5761010080835404028352916020019161049a565b820191906000526020600020905b81548152906001019060200180831161047d57829003601f168201915b5050505050905090565b60006104af82610bc7565b6104ee576040517f08c379a00000000000000000000000000000000000000000000000000000000081526004016104e59061227f565b60405180910390fd5b6004600083815260200190815260200160002060009054906101000a900473ffffffffffffffffffffffffffffffffffffffff169050919050565b6000610534826106c1565b90508073ffffffffffffffffffffffffffffffffffffffff168373ffffffffffffffffffffffffffffffffffffffff1614156105a5576040517f08c379a000000000000000000000000000000000000000000000000000000000815260040161059c906122bf565b60405180910390fd5b8073ffffffffffffffffffffffffffffffffffffffff166105c4610c33565b73ffffffffffffffffffffffffffffffffffffffff1614806105f357506105f2816105ed610c33565b610ac9565b5b610632576040517f08c379a0000000000000000000000000000000000000000000000000000000008152600401610629906121bf565b60405180910390fd5b61063c8383610c3b565b505050565b61065261064c610c33565b82610cf4565b610691576040517f08c379a0000000000000000000000000000000000000000000000000000000008152600401610688906122df565b60405180910390fd5b61069c838383610dd2565b505050565b6106bc838383604051806020016040528060008152506108d9565b505050565b6000806002600084815260200190815260200160002060009054906101000a900473ffffffffffffffffffffffffffffffffffffffff169050600073ffffffffffffffffffffffffffffffffffffffff168173ffffffffffffffffffffffffffffffffffffffff16141561076a576040517f08c379a0000000000000000000000000000000000000000000000000000000008152600401610761906121ff565b60405180910390fd5b80915050919050565b60008073ffffffffffffffffffffffffffffffffffffffff168273ffffffffffffffffffffffffffffffffffffffff1614156107e4576040517f08c379a00000000000000000000000000000000000000000000000000000000081526004016107db906121df565b60405180910390fd5b600360008373ffffffffffffffffffffffffffffffffffffffff1673ffffffffffffffffffffffffffffffffffffffff168152602001908152602001600020549050919050565b60606001805461083a90612555565b80601f016020809104026020016040519081016040528092919081815260200182805461086690612555565b80156108b35780601f10610888576101008083540402835291602001916108b3565b820191906000526020600020905b81548152906001019060200180831161089657829003601f168201915b5050505050905090565b60075481565b6108d56108ce610c33565b8383611039565b5050565b6108ea6108e4610c33565b83610cf4565b610929576040517f08c379a0000000000000000000000000000000000000000000000000000000008152600401610920906122df565b60405180910390fd5b610935848484846111a6565b50505050565b606061094682610bc7565b610985576040517f08c379a000000000000000000000000000000000000000000000000000000000815260040161097c9061225f565b60405180910390fd5b60006006600084815260200190815260200160002080546109a590612555565b80601f01602080910402602001604051908101604052809291908181526020018280546109d190612555565b8015610a1e5780601f106109f357610100808354040283529160200191610a1e565b820191906000526020600020905b815481529060010190602001808311610a0157829003601f168201915b505050505090506000610a2f611202565b9050600081511415610a45578192505050610a88565b600082511115610a7a578082604051602001610a62929190612037565b60405160208183030381529060405292505050610a88565b610a8384611219565b925050505b919050565b600060076000815480929190610aa2906125b8565b9190505550610ab3336007546112c0565b610abf600754836112de565b6007549050919050565b6000600560008473ffffffffffffffffffffffffffffffffffffffff1673ffffffffffffffffffffffffffffffffffffffff16815260200190815260200160002060008373ffffffffffffffffffffffffffffffffffffffff1673ffffffffffffffffffffffffffffffffffffffff16815260200190815260200160002060009054906101000a900460ff16905092915050565b60007f01ffc9a7000000000000000000000000000000000000000000000000000000007bffffffffffffffffffffffffffffffffffffffffffffffffffffffff1916827bffffffffffffffffffffffffffffffffffffffffffffffffffffffff1916149050919050565b60008073ffffffffffffffffffffffffffffffffffffffff166002600084815260200190815260200160002060009054906101000a900473ffffffffffffffffffffffffffffffffffffffff1673ffffffffffffffffffffffffffffffffffffffff1614159050919050565b600033905090565b816004600083815260200190815260200160002060006101000a81548173ffffffffffffffffffffffffffffffffffffffff021916908373ffffffffffffffffffffffffffffffffffffffff160217905550808273ffffffffffffffffffffffffffffffffffffffff16610cae836106c1565b73ffffffffffffffffffffffffffffffffffffffff167f8c5be1e5ebec7d5bd14f71427d1e84f3dd0314c0f7b2291e5b200ac8c7c3b92560405160405180910390a45050565b6000610cff82610bc7565b610d3e576040517f08c379a0000000000000000000000000000000000000000000000000000000008152600401610d359061219f565b60405180910390fd5b6000610d49836106c1565b90508073ffffffffffffffffffffffffffffffffffffffff168473ffffffffffffffffffffffffffffffffffffffff161480610db857508373ffffffffffffffffffffffffffffffffffffffff16610da0846104a4565b73ffffffffffffffffffffffffffffffffffffffff16145b80610dc95750610dc88185610ac9565b5b91505092915050565b8273ffffffffffffffffffffffffffffffffffffffff16610df2826106c1565b73ffffffffffffffffffffffffffffffffffffffff1614610e48576040517f08c379a0000000000000000000000000000000000000000000000000000000008152600401610e3f9061211f565b60405180910390fd5b600073ffffffffffffffffffffffffffffffffffffffff168273ffffffffffffffffffffffffffffffffffffffff161415610eb8576040517f08c379a0000000000000000000000000000000000000000000000000000000008152600401610eaf9061215f565b60405180910390fd5b610ec3838383611352565b610ece600082610c3b565b6001600360008573ffffffffffffffffffffffffffffffffffffffff1673ffffffffffffffffffffffffffffffffffffffff1681526020019081526020016000206000828254610f1e919061246b565b925050819055506001600360008473ffffffffffffffffffffffffffffffffffffffff1673ffffffffffffffffffffffffffffffffffffffff1681526020019081526020016000206000828254610f7591906123e4565b92505081905550816002600083815260200190815260200160002060006101000a81548173ffffffffffffffffffffffffffffffffffffffff021916908373ffffffffffffffffffffffffffffffffffffffff160217905550808273ffffffffffffffffffffffffffffffffffffffff168473ffffffffffffffffffffffffffffffffffffffff167fddf252ad1be2c89b69c2b068fc378daa952ba7f163c4a11628f55a4df523b3ef60405160405180910390a4611034838383611357565b505050565b8173ffffffffffffffffffffffffffffffffffffffff168373ffffffffffffffffffffffffffffffffffffffff1614156110a8576040517f08c379a000000000000000000000000000000000000000000000000000000000815260040161109f9061217f565b60405180910390fd5b80600560008573ffffffffffffffffffffffffffffffffffffffff1673ffffffffffffffffffffffffffffffffffffffff16815260200190815260200160002060008473ffffffffffffffffffffffffffffffffffffffff1673ffffffffffffffffffffffffffffffffffffffff16815260200190815260200160002060006101000a81548160ff0219169083151502179055508173ffffffffffffffffffffffffffffffffffffffff168373ffffffffffffffffffffffffffffffffffffffff167f17307eab39ab6107e8899845ad3d59bd9653f200f220920489ca2b5937696c318360405161119991906120c2565b60405180910390a3505050565b6111b1848484610dd2565b6111bd8484848461135c565b6111fc576040517f08c379a00000000000000000000000000000000000000000000000000000000081526004016111f3906120ff565b60405180910390fd5b50505050565b606060405180602001604052806000815250905090565b606061122482610bc7565b611263576040517f08c379a000000000000000000000000000000000000000000000000000000000815260040161125a9061229f565b60405180910390fd5b600061126d611202565b9050600081511161128d57604051806020016040528060008152506112b8565b80611297846114f3565b6040516020016112a8929190612037565b6040516020818303038152906040525b915050919050565b6112da8282604051806020016040528060008152506116a0565b5050565b6112e782610bc7565b611326576040517f08c379a000000000000000000000000000000000000000000000000000000000815260040161131d9061221f565b60405180910390fd5b8060066000848152602001908152602001600020908051906020019061134d9291906118f8565b505050565b505050565b505050565b600061137d8473ffffffffffffffffffffffffffffffffffffffff166116fb565b156114e6578373ffffffffffffffffffffffffffffffffffffffff1663150b7a026113a6610c33565b8786866040518563ffffffff1660e01b81526004016113c89493929190612076565b602060405180830381600087803b1580156113e257600080fd5b505af192505050801561141357506040513d601f19601f820116820180604052508101906114109190611ca4565b60015b611496573d8060008114611443576040519150601f19603f3d011682016040523d82523d6000602084013e611448565b606091505b5060008151141561148e576040517f08c379a0000000000000000000000000000000000000000000000000000000008152600401611485906120ff565b60405180910390fd5b805181602001fd5b63150b7a0260e01b7bffffffffffffffffffffffffffffffffffffffffffffffffffffffff1916817bffffffffffffffffffffffffffffffffffffffffffffffffffffffff1916149150506114eb565b600190505b949350505050565b6060600082141561153b576040518060400160405280600181526020017f3000000000000000000000000000000000000000000000000000000000000000815250905061169b565b600082905060005b6000821461156d578080611556906125b8565b915050600a82611566919061243a565b9150611543565b60008167ffffffffffffffff8111156115af577f4e487b7100000000000000000000000000000000000000000000000000000000600052604160045260246000fd5b6040519080825280601f01601f1916602001820160405280156115e15781602001600182028036833780820191505090505b5090505b60008514611694576001826115fa919061246b565b9150600a856116099190612601565b603061161591906123e4565b60f81b818381518110611651577f4e487b7100000000000000000000000000000000000000000000000000000000600052603260045260246000fd5b60200101907effffffffffffffffffffffffffffffffffffffffffffffffffffffffffffff1916908160001a905350600a8561168d919061243a565b94506115e5565b8093505050505b919050565b6116aa838361171e565b6116b7600084848461135c565b6116f6576040517f08c379a00000000000000000000000000000000000000000000000000000000081526004016116ed906120ff565b60405180910390fd5b505050565b6000808273ffffffffffffffffffffffffffffffffffffffff163b119050919050565b600073ffffffffffffffffffffffffffffffffffffffff168273ffffffffffffffffffffffffffffffffffffffff16141561178e576040517f08c379a00000000000000000000000000000000000000000000000000000000081526004016117859061223f565b60405180910390fd5b61179781610bc7565b156117d7576040517f08c379a00000000000000000000000000000000000000000000000000000000081526004016117ce9061213f565b60405180910390fd5b6117e360008383611352565b6001600360008473ffffffffffffffffffffffffffffffffffffffff1673ffffffffffffffffffffffffffffffffffffffff168152602001908152602001600020600082825461183391906123e4565b92505081905550816002600083815260200190815260200160002060006101000a81548173ffffffffffffffffffffffffffffffffffffffff021916908373ffffffffffffffffffffffffffffffffffffffff160217905550808273ffffffffffffffffffffffffffffffffffffffff16600073ffffffffffffffffffffffffffffffffffffffff167fddf252ad1be2c89b69c2b068fc378daa952ba7f163c4a11628f55a4df523b3ef60405160405180910390a46118f460008383611357565b5050565b82805461190490612555565b90600052602060002090601f016020900481019282611926576000855561196d565b82601f1061193f57805160ff191683800117855561196d565b8280016001018555821561196d579182015b8281111561196c578251825591602001919060010190611951565b5b50905061197a919061197e565b5090565b5b8082111561199757600081600090555060010161197f565b5090565b60006119ae6119a98461233f565b61231a565b9050828152602081018484840111156119c657600080fd5b6119d1848285612513565b509392505050565b60006119ec6119e784612370565b61231a565b905082815260208101848484011115611a0457600080fd5b611a0f848285612513565b509392505050565b600081359050611a2681612b7d565b92915050565b600081359050611a3b81612b94565b92915050565b600081359050611a5081612bab565b92915050565b600081519050611a6581612bab565b92915050565b600082601f830112611a7c57600080fd5b8135611a8c84826020860161199b565b91505092915050565b600082601f830112611aa657600080fd5b8135611ab68482602086016119d9565b91505092915050565b600081359050611ace81612bc2565b92915050565b600060208284031215611ae657600080fd5b6000611af484828501611a17565b91505092915050565b60008060408385031215611b1057600080fd5b6000611b1e85828601611a17565b9250506020611b2f85828601611a17565b9150509250929050565b600080600060608486031215611b4e57600080fd5b6000611b5c86828701611a17565b9350506020611b6d86828701611a17565b9250506040611b7e86828701611abf565b9150509250925092565b60008060008060808587031215611b9e57600080fd5b6000611bac87828801611a17565b9450506020611bbd87828801611a17565b9350506040611bce87828801611abf565b925050606085013567ffffffffffffffff811115611beb57600080fd5b611bf787828801611a6b565b91505092959194509250565b60008060408385031215611c1657600080fd5b6000611c2485828601611a17565b9250506020611c3585828601611a2c565b9150509250929050565b60008060408385031215611c5257600080fd5b6000611c6085828601611a17565b9250506020611c7185828601611abf565b9150509250929050565b600060208284031215611c8d57600080fd5b6000611c9b84828501611a41565b91505092915050565b600060208284031215611cb657600080fd5b6000611cc484828501611a56565b91505092915050565b600060208284031215611cdf57600080fd5b600082013567ffffffffffffffff811115611cf957600080fd5b611d0584828501611a95565b91505092915050565b600060208284031215611d2057600080fd5b6000611d2e84828501611abf565b91505092915050565b611d408161249f565b82525050565b611d4f816124b1565b82525050565b6000611d60826123a1565b611d6a81856123b7565b9350611d7a818560208601612522565b611d83816126ee565b840191505092915050565b6000611d99826123ac565b611da381856123c8565b9350611db3818560208601612522565b611dbc816126ee565b840191505092915050565b6000611dd2826123ac565b611ddc81856123d9565b9350611dec818560208601612522565b80840191505092915050565b6000611e056032836123c8565b9150611e10826126ff565b604082019050919050565b6000611e286025836123c8565b9150611e338261274e565b604082019050919050565b6000611e4b601c836123c8565b9150611e568261279d565b602082019050919050565b6000611e6e6024836123c8565b9150611e79826127c6565b604082019050919050565b6000611e916019836123c8565b9150611e9c82612815565b602082019050919050565b6000611eb4602c836123c8565b9150611ebf8261283e565b604082019050919050565b6000611ed76038836123c8565b9150611ee28261288d565b604082019050919050565b6000611efa602a836123c8565b9150611f05826128dc565b604082019050919050565b6000611f1d6029836123c8565b9150611f288261292b565b604082019050919050565b6000611f40602e836123c8565b9150611f4b8261297a565b604082019050919050565b6000611f636020836123c8565b9150611f6e826129c9565b602082019050919050565b6000611f866031836123c8565b9150611f91826129f2565b604082019050919050565b6000611fa9602c836123c8565b9150611fb482612a41565b604082019050919050565b6000611fcc602f836123c8565b9150611fd782612a90565b604082019050919050565b6000611fef6021836123c8565b9150611ffa82612adf565b604082019050919050565b60006120126031836123c8565b915061201d82612b2e565b604082019050919050565b61203181612509565b82525050565b60006120438285611dc7565b915061204f8284611dc7565b91508190509392505050565b60006020820190506120706000830184611d37565b92915050565b600060808201905061208b6000830187611d37565b6120986020830186611d37565b6120a56040830185612028565b81810360608301526120b78184611d55565b905095945050505050565b60006020820190506120d76000830184611d46565b92915050565b600060208201905081810360008301526120f78184611d8e565b905092915050565b6000602082019050818103600083015261211881611df8565b9050919050565b6000602082019050818103600083015261213881611e1b565b9050919050565b6000602082019050818103600083015261215881611e3e565b9050919050565b6000602082019050818103600083015261217881611e61565b9050919050565b6000602082019050818103600083015261219881611e84565b9050919050565b600060208201905081810360008301526121b881611ea7565b9050919050565b600060208201905081810360008301526121d881611eca565b9050919050565b600060208201905081810360008301526121f881611eed565b9050919050565b6000602082019050818103600083015261221881611f10565b9050919050565b6000602082019050818103600083015261223881611f33565b9050919050565b6000602082019050818103600083015261225881611f56565b9050919050565b6000602082019050818103600083015261227881611f79565b9050919050565b6000602082019050818103600083015261229881611f9c565b9050919050565b600060208201905081810360008301526122b881611fbf565b9050919050565b600060208201905081810360008301526122d881611fe2565b9050919050565b600060208201905081810360008301526122f881612005565b9050919050565b60006020820190506123146000830184612028565b92915050565b6000612324612335565b90506123308282612587565b919050565b6000604051905090565b600067ffffffffffffffff82111561235a576123596126bf565b5b612363826126ee565b9050602081019050919050565b600067ffffffffffffffff82111561238b5761238a6126bf565b5b612394826126ee565b9050602081019050919050565b600081519050919050565b600081519050919050565b600082825260208201905092915050565b600082825260208201905092915050565b600081905092915050565b60006123ef82612509565b91506123fa83612509565b9250827fffffffffffffffffffffffffffffffffffffffffffffffffffffffffffffffff0382111561242f5761242e612632565b5b828201905092915050565b600061244582612509565b915061245083612509565b9250826124605761245f612661565b5b828204905092915050565b600061247682612509565b915061248183612509565b92508282101561249457612493612632565b5b828203905092915050565b60006124aa826124e9565b9050919050565b60008115159050919050565b60007fffffffff0000000000000000000000000000000000000000000000000000000082169050919050565b600073ffffffffffffffffffffffffffffffffffffffff82169050919050565b6000819050919050565b82818337600083830152505050565b60005b83811015612540578082015181840152602081019050612525565b8381111561254f576000848401525b50505050565b6000600282049050600182168061256d57607f821691505b6020821081141561258157612580612690565b5b50919050565b612590826126ee565b810181811067ffffffffffffffff821117156125af576125ae6126bf565b5b80604052505050565b60006125c382612509565b91507fffffffffffffffffffffffffffffffffffffffffffffffffffffffffffffffff8214156125f6576125f5612632565b5b600182019050919050565b600061260c82612509565b915061261783612509565b92508261262757612626612661565b5b828206905092915050565b7f4e487b7100000000000000000000000000000000000000000000000000000000600052601160045260246000fd5b7f4e487b7100000000000000000000000000000000000000000000000000000000600052601260045260246000fd5b7f4e487b7100000000000000000000000000000000000000000000000000000000600052602260045260246000fd5b7f4e487b7100000000000000000000000000000000000000000000000000000000600052604160045260246000fd5b6000601f19601f8301169050919050565b7f4552433732313a207472616e7366657220746f206e6f6e20455243373231526560008201527f63656976657220696d706c656d656e7465720000000000000000000000000000602082015250565b7f4552433732313a207472616e736665722066726f6d20696e636f72726563742060008201527f6f776e6572000000000000000000000000000000000000000000000000000000602082015250565b7f4552433732313a20746f6b656e20616c7265616479206d696e74656400000000600082015250565b7f4552433732313a207472616e7366657220746f20746865207a65726f2061646460008201527f7265737300000000000000000000000000000000000000000000000000000000602082015250565b7f4552433732313a20617070726f766520746f2063616c6c657200000000000000600082015250565b7f4552433732313a206f70657261746f7220717565727920666f72206e6f6e657860008201527f697374656e7420746f6b656e0000000000000000000000000000000000000000602082015250565b7f4552433732313a20617070726f76652063616c6c6572206973206e6f74206f7760008201527f6e6572206e6f7220617070726f76656420666f7220616c6c0000000000000000602082015250565b7f4552433732313a2062616c616e636520717565727920666f7220746865207a6560008201527f726f206164647265737300000000000000000000000000000000000000000000602082015250565b7f4552433732313a206f776e657220717565727920666f72206e6f6e657869737460008201527f656e7420746f6b656e0000000000000000000000000000000000000000000000602082015250565b7f45524337323155524953746f726167653a2055524920736574206f66206e6f6e60008201527f6578697374656e7420746f6b656e000000000000000000000000000000000000602082015250565b7f4552433732313a206d696e7420746f20746865207a65726f2061646472657373600082015250565b7f45524337323155524953746f726167653a2055524920717565727920666f722060008201527f6e6f6e6578697374656e7420746f6b656e000000000000000000000000000000602082015250565b7f4552433732313a20617070726f76656420717565727920666f72206e6f6e657860008201527f697374656e7420746f6b656e0000000000000000000000000000000000000000602082015250565b7f4552433732314d657461646174613a2055524920717565727920666f72206e6f60008201527f6e6578697374656e7420746f6b656e0000000000000000000000000000000000602082015250565b7f4552433732313a20617070726f76616c20746f2063757272656e74206f776e6560008201527f7200000000000000000000000000000000000000000000000000000000000000602082015250565b7f4552433732313a207472616e736665722063616c6c6572206973206e6f74206f60008201527f776e6572206e6f7220617070726f766564000000000000000000000000000000602082015250565b612b868161249f565b8114612b9157600080fd5b50565b612b9d816124b1565b8114612ba857600080fd5b50565b612bb4816124bd565b8114612bbf57600080fd5b50565b612bcb81612509565b8114612bd657600080fd5b5056fea26469706673582212205b65c11a9584f30e17c77cef16261b3c404df82af1781b70fe5f0c6c2ba5933d64736f6c63430008040033",
  "immutableReferences": {},
  "source": "// SPDX-License-Identifier: MIT\r\npragma solidity ^0.8.4;\r\n\r\nimport \"@openzeppelin/contracts/token/ERC721/extensions/ERC721URIStorage.sol\";\r\n\r\ncontract NFT is ERC721URIStorage {\r\n    uint public tokenCount;\r\n    constructor() ERC721(\"DApp NFT\", \"DAPP\"){}\r\n    function mint(string memory _tokenURI) external returns(uint) {\r\n        tokenCount ++;\r\n        _safeMint(msg.sender, tokenCount);\r\n        _setTokenURI(tokenCount, _tokenURI);\r\n        return(tokenCount);\r\n    }\r\n}",
  "sourcePath": "D:\\bairui\\nodejs\\truffle\\nft_marketplace\\contracts\\NFT.sol",
  "compiler": {
    "name": "solc",
    "version": "0.8.4+commit.c7e474f2.Emscripten.clang"
  },
  "schemaVersion": "3.4.3",
  "updatedAt": "2022-08-01T08:46:05.609Z",
  "networkType": "ethereum",
  "devdoc": {
    "kind": "dev",
    "methods": {
      "approve(address,uint256)": {
        "details": "See {IERC721-approve}."
      },
      "balanceOf(address)": {
        "details": "See {IERC721-balanceOf}."
      },
      "getApproved(uint256)": {
        "details": "See {IERC721-getApproved}."
      },
      "isApprovedForAll(address,address)": {
        "details": "See {IERC721-isApprovedForAll}."
      },
      "name()": {
        "details": "See {IERC721Metadata-name}."
      },
      "ownerOf(uint256)": {
        "details": "See {IERC721-ownerOf}."
      },
      "safeTransferFrom(address,address,uint256)": {
        "details": "See {IERC721-safeTransferFrom}."
      },
      "safeTransferFrom(address,address,uint256,bytes)": {
        "details": "See {IERC721-safeTransferFrom}."
      },
      "setApprovalForAll(address,bool)": {
        "details": "See {IERC721-setApprovalForAll}."
      },
      "supportsInterface(bytes4)": {
        "details": "See {IERC165-supportsInterface}."
      },
      "symbol()": {
        "details": "See {IERC721Metadata-symbol}."
      },
      "tokenURI(uint256)": {
        "details": "See {IERC721Metadata-tokenURI}."
      },
      "transferFrom(address,address,uint256)": {
        "details": "See {IERC721-transferFrom}."
      }
    },
    "version": 1
  },
  "userdoc": {
    "kind": "user",
    "methods": {},
    "version": 1
  }
}